:100000000C9462000C948A000C948A000C948A0070
:100010000C948A000C948A000C948A000C948A0038
:100020000C948A000C948A000C948A000C948A0028
:100030000C948A000C948A000C948A000C948A0018
:100040000C940E020C948A000C948A000C948A0082
:100050000C948A000C948A000C948A000C948A00F8
:100060000C948A000C948A000000000024002700F1
:100070002A0000000000250028002B0000000000DE
:1000800023002600290004040404040404040202DA
:100090000202020203030303030301020408102007
:1000A0004080010204081020010204081020000012
:1000B0000008000201000003040700000000000027
:1000C0000000A40311241FBECFEFD8E0DEBFCDBFD8
:1000D00011E0A0E0B1E0E6E9F7E002C005900D9282
:1000E000A833B107D9F721E0A8E3B1E001C01D9220
:1000F000A734B207E1F710E0C2E6D0E004C02197D0
:10010000FE010E94C303C136D107C9F70E945802FD
:100110000C94C9030C940000833081F028F48130E2
:1001200099F08230A9F008958730A9F08830C9F09D
:100130008430B1F4809180008F7D03C08091800075
:100140008F7780938000089584B58F7784BD08955C
:1001500084B58F7DFBCF8091B0008F778093B00006
:1001600008958091B0008F7DF9CFCF93DF93282F32
:1001700030E0F901E255FF4F8491F901E656FF4F57
:10018000D491F901EA57FF4FC491CC23A1F081111A
:100190000E948C00EC2FF0E0EE0FFF1FE458FF4FA1
:1001A000A591B491EC91ED2381E090E009F480E019
:1001B000DF91CF91089580E090E0FACF1F93CF9325
:1001C000DF93282F30E0F901E255FF4F8491F901C8
:1001D000E656FF4FD491F901EA57FF4FC491CC2363
:1001E000A9F0162F81110E948C00EC2FF0E0EE0F89
:1001F000FF1FEE58FF4FA591B4918FB7F894EC9183
:10020000111108C0D095DE23DC938FBFDF91CF9111
:100210001F910895DE2BF8CFCF93DF93D82FC8E03E
:1002200060E0809145010E94DE0061E0D7FF60E060
:10023000809141010E94DE0061E0809145010E94B1
:10024000DE00DD0FC15061F7DF91CF9108950F936C
:100250001F93CF93DF93082F162FC1E4D1E060E006
:100260008A810E94DE00802F0E940C01812F0E9453
:100270000C0161E08A81DF91CF911F910F910C9465
:10028000DE00EF92FF920F931F93CF93DF93CDB7D2
:10029000DEB7A8970FB6F894DEBF0FBECDBF98E0CB
:1002A000E0E0F1E0DE01919601900D929A95E1F780
:1002B00098E0E8E0F1E0DE01599601900D929A9500
:1002C000E1F798E0E0E1F1E0DE01519601900D9256
:1002D0009A95E1F798E0E8E1F1E0DE0119960190E6
:1002E0000D929A95E1F798E0E0E2F1E0DE011196D7
:1002F00001900D929A95E1F7833009F440C010F512
:100300007E01F9E1EF0EF11C10E0823071F17E0107
:1003100081E2E80EF11C10E0F70161917F011F5F9F
:10032000812F0E9427011830B9F7A8960FB6F894CC
:10033000DEBF0FBECDBFDF91CF911F910F91FF9018
:10034000EF900895843051F18E010F5F1F4FF12C13
:100350008530E9F6F80161918F01F3948F2D0E94A9
:100360002701F8E0FF12F6CFE0CFF70161917F019E
:100370001F5F812F0E9427011830B9F7D6CF7E0169
:10038000F1E1EF0EF11C10E0F70161917F011F5FB9
:10039000812F0E9427011830B9F7C7CF7E01F9E0FD
:1003A000EF0EF11C10E0F70161917F011F5F812FBB
:1003B0000E9427011830B9F7B8CFCF93DF9390E0B0
:1003C000FC01E656FF4F24918A579F4FFC01849110
:1003D0008823D1F090E0880F991FFC01E859FF4F66
:1003E000A591B491FC01EE58FF4FC591D4916111D4
:1003F0000EC09FB7F8948C91E22FE0958E238C93DA
:100400002881E223E8839FBFDF91CF9108958FB7C2
:10041000F894EC91E22BEC938FBFF6CF1F920F92E2
:100420000FB60F9211242F933F938F939F93AF9307
:10043000BF9380913D0190913E01A0913F01B09109
:10044000400130913C0123E0230F2D3758F50196F0
:10045000A11DB11D20933C0180933D0190933E016D
:10046000A0933F01B09340018091380190913901F0
:10047000A0913A01B0913B010196A11DB11D80935D
:10048000380190933901A0933A01B0933B01BF9199
:10049000AF919F918F913F912F910F900FBE0F9031
:1004A0001F90189526E8230F0296A11DB11DD2CFEB
:1004B000CF93DF93CDB7DEB728970FB6F894DEBFA2
:1004C0000FBECDBF789484B5826084BD84B5816051
:1004D00084BD85B5826085BD85B5816085BD80910F
:1004E0006E00816080936E00109281008091810087
:1004F000826080938100809181008160809381007F
:10050000809180008160809380008091B100846040
:100510008093B1008091B00081608093B0008091A1
:100520007A00846080937A0080917A008260809360
:100530007A0080917A00816080937A0080917A00BD
:10054000806880937A001092C10060E089E00E9488
:1005500027016FE08AE00E94270167E08BE00E949C
:10056000270161E08CE00E94270160E08EE00E949C
:10057000DD0160E08FE00E94DD0160E080E10E942B
:10058000DD0160E081E10E94DD0160E082E10E9426
:10059000DD0160E083E10E94DD0160E080E00E9417
:1005A000DD0161E081E00E94DD0161E082E00E9406
:1005B000DD0161E083E00E94DD0161E084E00E94F2
:1005C000DD0161E085E00E94DD0161E086E00E94DE
:1005D000DD0161E087E00E94DD0180E0C82E80E05F
:1005E000D82E8EE00E94B500892B09F082C061E010
:1005F00081E00E94DE0088E0E8E2F1E0DE01119691
:1006000001900D928A95E1F7CE0101967C0110E0F0
:10061000F70161917F011F5F812F0E942701183030
:10062000B9F78FE00E94B500892B09F067C061E03F
:1006300082E00E94DE0081E00E94410180E10E9490
:10064000B500892B09F05FC061E083E00E94DE0005
:1006500082E00E94410181E10E94B500892B09F0EE
:1006600057C061E084E00E94DE0083E00E94410107
:1006700082E10E94B500892B09F04FC061E085E05E
:100680000E94DE0084E00E94410183E10E94B500E7
:10069000892B09F047C061E086E00E94DE0085E01A
:1006A0000E94410180E00E94B500892B09F03FC003
:1006B00061E087E00E94DE0088E0E0E3F1E0DE0137
:1006C000119601900D928A95E1F7CE0101967C0179
:1006D00010E0F70161917F011F5F812F0E942701C8
:1006E0001830B9F7C114D10409F47BCF0E9400007F
:1006F00078CF60E081E00E94DE0093CF60E082E08E
:100700000E94DE009BCF60E083E00E94DE00A3CF6A
:1007100060E084E00E94DE00ABCF60E085E00E94F4
:10072000DE00B3CF60E086E00E94DE00BBCF60E079
:1007300087E00E94DE0010E01F5F60E0812F0E94D2
:1007400027011830C9F7CECFCF93DF9361E08AE05D
:100750000E94DD01C1E4D1E08AE090E099838883C2
:1007600061E08BE00E94DD018BE090E09B838A8357
:1007700061E08DE00E94DD018DE090E09D838C833F
:10078000DF91CF910895EE0FFF1F0590F491E02DBA
:060790000994F894FFCF6C
:100796000008180808081C000018240810203C004F
:1007A600003804380404380000040C143C04040027
:1007B600003C2038040438000022322A2A2622006F
:0807C60000382438242424002B
:00000001FF
